:020000040800F2
:1000000000800120F5340008191200081B120008B6
:100010001D1200081F120008211200080000000035
:100020000000000000000000000000002312000893
:1000300025120008000000002712000829120008FD
:1000400045350008453500084535000845350008A8
:100050004535000845350008453500084535000898
:100060004535000845350008453500084535000888
:100070004535000845350008453500084535000878
:100080004535000845350008453500084535000868
:100090004535000845350008453500084535000858
:1000A0004535000845350008453500084535000848
:1000B0004535000845350008453500084535000838
:1000C0004535000845350008453500084535000828
:1000D0004535000845350008453500084535000818
:1000E0004535000845350008453500084535000808
:1000F00045350008453500084535000845350008F8
:1001000045350008453500084535000845350008E7
:1001100045350008453500084535000845350008D7
:1001200045350008453500084535000845350008C7
:1001300045350008453500084535000845350008B7
:1001400045350008453500084535000845350008A7
:100150004535000845350008453500084535000897
:100160004535000845350008453500084535000887
:1001700045350008453500084535000800000000F9
:08018000453500084535000873
:1001900010B5054C237833B9044B13B10448AFF3C1
:1001A00000800123237010BD6800002000000000C3
:1001B000B83D000808B5034B1BB103490348AFF332
:1001C000008008BD000000006C000020B83D000861
:1001D000034613F8012B002AFBD1181A0138704787
:1001E00001F0FF01102A2BDB10F0070F08D010F8E8
:1001F000013B013A8B422DD010F0070F42B3F6D1EC
:10020000F0B441EA012141EA014122F007047FF004
:1002100000070023F0E80256083C85EA010586EA5B
:10022000010685FA47F5A3FA87F586FA47F6A5FA97
:1002300087F68EB9EED1F0BC01F0FF0102F00702A3
:1002400032B110F8013B013A83EA010313B1F8D14E
:100250000020704701387047002D06BF354603382F
:10026000073815F0010F07D1013015F4807F02BF68
:10027000013015F4C03F0130F0BC0138704700BFB9
:1002800081F0004102E000BF83F0004330B54FEA47
:1002900041044FEA430594EA050F08BF90EA020FB4
:1002A0001FBF54EA000C55EA020C7FEA645C7FEA47
:1002B000655C00F0E2804FEA5454D4EB5555B8BF6A
:1002C0006D420CDD2C4480EA020281EA030382EADB
:1002D000000083EA010180EA020281EA0303362D6D
:1002E00088BF30BD11F0004F4FEA01314FF4801C40
:1002F0004CEA113102D0404261EB410113F0004F52
:100300004FEA03334CEA133302D0524263EB430308
:1003100094EA050F00F0A780A4F10104D5F1200EA6
:100320000DDB02FA0EFC22FA05F2801841F1000101
:1003300003FA0EF2801843FA05F359410EE0A5F1D5
:1003400020050EF1200E012A03FA0EFC28BF4CF006
:10035000020C43FA05F3C01851EBE37101F00045BC
:1003600007D54FF0000EDCF1000C7EEB00006EEBC9
:100370000101B1F5801F1BD3B1F5001F0CD3490853
:100380005FEA30004FEA3C0C04F101044FEA4452AA
:1003900012F5800F80F09A80BCF1004F08BF5FEA31
:1003A000500C50F1000041EB045141EA050130BD11
:1003B0005FEA4C0C404141EB010111F4801FA4F1B4
:1003C0000104E9D191F0000F04BF01460020B1FA09
:1003D00081F308BF2033A3F10B03B3F120020CDA41
:1003E0000C3208DD02F1140CC2F10C0201FA0CF01F
:1003F00021FA02F10CE002F11402D8BFC2F1200C84
:1004000001FA02F120FA0CFCDCBF41EA0C01904039
:10041000E41AA2BF01EB0451294330BD6FEA040482
:100420001F3C1CDA0C340EDC04F11404C4F120026D
:1004300020FA04F001FA02F340EA030021FA04F37F
:1004400045EA030130BDC4F10C04C4F1200220FAD6
:1004500002F001FA04F340EA0300294630BD21FA14
:1004600004F0294630BD94F0000F83F4801306BFDA
:1004700081F480110134013D4EE77FEA645C18BFCE
:100480007FEA655C29D094EA050F08BF90EA020F65
:1004900005D054EA000C04BF1946104630BD91EA5D
:1004A000030F1EBF0021002030BD5FEA545C05D160
:1004B0004000494128BF41F0004130BD14F580049F
:1004C0003CBF01F5801130BD01F0004545F0FE4113
:1004D00041F470014FF0000030BD7FEA645C1ABF48
:1004E000194610467FEA655C1CBF0B46024650EA7F
:1004F000013406BF52EA033591EA030F41F40021AB
:1005000030BD00BF90F0000F04BF0021704730B530
:100510004FF4806404F132044FF000054FF0000105
:1005200050E700BF90F0000F04BF0021704730B5C6
:100530004FF4806404F1320410F0004548BF40429B
:100540004FF000013EE700BF42004FEAE2014FEAF0
:1005500031014FEA02701FBF12F07F4393F07F4FCB
:1005600081F06051704732F07F4208BF704793F0CE
:100570007F4F04BF41F40021704730B54FF46074E1
:1005800001F0004521F000411CE700BF50EA0102E4
:1005900008BF704730B54FF000050AE050EA01028D
:1005A00008BF704730B511F0004502D5404261EBFD
:1005B00041014FF4806404F132045FEA915C3FF43E
:1005C000D8AE4FF003025FEADC0C18BF03325FEADB
:1005D000DC0C18BF033202EBDC02C2F1200300FA8C
:1005E00003FC20FA02F001FA03FE40EA0E0021FAB1
:1005F00002F11444BDE600BF70B54FF0FF0C4CF49F
:10060000E06C1CEA11541DBF1CEA135594EA0C0F50
:1006100095EA0C0F00F0DEF82C4481EA030621EA8B
:100620004C5123EA4C5350EA013518BF52EA0335C6
:1006300041F4801143F4801338D0A0FB02CE4FF078
:100640000005E1FB02E506F00042E0FB03E54FF0A8
:100650000006E1FB03569CF0000F18BF4EF0010EA0
:10066000A4F1FF04B6F5007F64F5407404D25FEA9C
:100670004E0E6D4146EB060642EAC62141EA55514F
:100680004FEAC52040EA5E504FEACE2EB4F1FD0C91
:1006900088BFBCF5E06F1ED8BEF1004F08BF5FEA0F
:1006A000500E50F1000041EB045170BD06F00046C1
:1006B00046EA010140EA020081EA0301B4EB5C046E
:1006C000C2BFD4EB0C0541EA045170BD41F4801166
:1006D0004FF0000E013C00F3AB8014F1360FDEBF8B
:1006E000002001F0004170BDC4F10004203C35DA67
:1006F0000C341BDC04F11404C4F1200500FA05F3EA
:1007000020FA04F001FA05F240EA020001F000428A
:1007100021F0004110EBD37021FA04F642EB060100
:100720005EEA430E08BF20EAD37070BDC4F10C042A
:10073000C4F1200500FA04F320FA05F001FA04F2EE
:1007400040EA020001F0004110EBD37041F10001DA
:100750005EEA430E08BF20EAD37070BDC4F12005E5
:1007600000FA05F24EEA020E20FA04F301FA05F24D
:1007700043EA020321FA04F001F0004121FA04F2F5
:1007800020EA020000EBD3705EEA430E08BF20EAC5
:10079000D37070BD94F0000F0FD101F000464000FF
:1007A00041EB010111F4801F08BF013CF7D041EA81
:1007B000060195F0000F18BF704703F00046520085
:1007C00043EB030313F4801F08BF013DF7D043EA56
:1007D0000603704794EA0C0F0CEA135518BF95EA0C
:1007E0000C0F0CD050EA410618BF52EA4306D1D193
:1007F00081EA030101F000414FF0000070BD50EAB2
:10080000410606BF1046194652EA430619D094EA3B
:100810000C0F02D150EA013613D195EA0C0F05D125
:1008200052EA03361CBF104619460AD181EA030179
:1008300001F0004141F0FE4141F470014FF0000031
:1008400070BD41F0FE4141F4780170BD70B54FF0CC
:10085000FF0C4CF4E06C1CEA11541DBF1CEA13554C
:1008600094EA0C0F95EA0C0F00F0A7F8A4EB05042E
:1008700081EA030E52EA03354FEA013100F0888025
:100880004FEA03334FF0805545EA131343EA1263EE
:100890004FEA022245EA111545EA10654FEA0026A3
:1008A0000EF000419D4208BF964244F1FD0404F55C
:1008B000407402D25B084FEA3202B61A65EB0305B8
:1008C0005B084FEA32024FF480104FF4002CB6EB75
:1008D000020E75EB030E22BFB61A754640EA0C00F5
:1008E0005B084FEA3202B6EB020E75EB030E22BF35
:1008F000B61A754640EA5C005B084FEA3202B6EB76
:10090000020E75EB030E22BFB61A754640EA9C0034
:100910005B084FEA3202B6EB020E75EB030E22BF04
:10092000B61A754640EADC0055EA060E18D04FEAC2
:10093000051545EA16754FEA06164FEAC30343EA62
:1009400052734FEAC2025FEA1C1CC0D111F4801F2F
:100950000BD141EA00014FF000004FF0004CB6E728
:1009600011F4801F04BF01430020B4F1FD0C88BFC7
:10097000BCF5E06F3FF6AFAEB5EB030C04BFB6EBD2
:10098000020C5FEA500C50F1000041EB045170BDC5
:100990000EF0004E4EEA113114EB5C04C2BFD4EBF2
:1009A0000C0541EA045170BD41F480114FF0000E76
:1009B000013C90E645EA060E8DE60CEA135594EAF2
:1009C0000C0F08BF95EA0C0F3FF43BAF94EA0C0FF5
:1009D0000AD150EA01347FF434AF95EA0C0F7FF46A
:1009E00025AF104619462CE795EA0C0F06D152EABE
:1009F00003353FF4FDAE1046194622E750EA4106A2
:100A000018BF52EA43067FF4C5AE50EA41047FF4B2
:100A10000DAF52EA43057FF4EBAE12E74FEA410215
:100A2000B2F1E04324BFB3F5001CDCF1FE5C0DD94C
:100A300001F0004C4FEAC0024CEA5070B2F1004F96
:100A400040EB830008BF20F00100704711F0804F99
:100A500021D113F13872BCBF01F00040704741F45E
:100A600080114FEA5252C2F11802C2F1200C10FA62
:100A70000CF320FA02F018BF40F001004FEAC12346
:100A80004FEAD32303FA0CFC40EA0C0023FA02F3EA
:100A90004FEA4303CCE77FEA625307D150EA0133C0
:100AA0001EBF4FF0FE4040F44000704701F0004090
:100AB00040F0FE4040F40000704700BF53B94AB90F
:100AC000002908BF00281CBF4FF0FF314FF0FF3056
:100AD00000F072B9ADF1080C6DE904CE00F006F833
:100AE000DDF804E0DDE9022304B070472DE9F047AA
:100AF000089E04468846002B4BD18A42154667D98A
:100B0000B2FA82F24AB1C2F1200701FA02F320FAE6
:100B100007F7954047EA030894404FEA154E230C27
:100B2000B8FBFEF71FFA85FC0EFB178843EA084363
:100B300007FB0CF1994209D9EB1807F1FF3080F05F
:100B40001B81994240F21881023F2B445B1AA4B2E8
:100B5000B3FBFEF00EFB103344EA034400FB0CFC35
:100B6000A44509D92C1900F1FF3380F00781A44571
:100B700040F2048102382C4440EA0740A4EB0C0404
:100B800000271EB1D4400023C6E900433946BDE822
:100B9000F0878B4209D9002E00F0EB800027C6E9D0
:100BA000000138463946BDE8F087B3FA83F7002FD5
:100BB00047D18B4202D3824200F2FA80841A61EB61
:100BC000030301209846002EE0D0C6E90048DDE787
:100BD00002B9FFDEB2FA82F2002A40F08F80491B90
:100BE0004FEA154E1FFA85F80127B1FBFEFC230CD6
:100BF0000EFB1C1143EA014308FB0CF1994207D993
:100C0000EB180CF1FF3002D2994200F2CD808446FD
:100C1000591AA3B2B1FBFEF00EFB101443EA0444D0
:100C200008FB00F8A04507D92C1900F1FF3302D2C8
:100C3000A04500F2B6801846A4EB080440EA0C4038
:100C40009FE7C7F1200CBB4022FA0CFE4EEA030ED0
:100C500001FA07F420FA0CF521FA0CF34FEA1E48CA
:100C60002543B3FBF8F92C0C08FB19331FFA8EFA55
:100C700044EA034309FB0AF49C4202FA07F200FA31
:100C800007F10BD91EEB030309F1FF3080F08780D9
:100C90009C4240F28480A9F1020973441B1BADB24F
:100CA000B3FBF8F008FB103345EA034400FB0AFAF3
:100CB000A24508D91EEB040400F1FF336BD2A24514
:100CC00069D90238744440EA0940A0FB0289A4EBC8
:100CD0000A044C45C2464B4654D351D0002E69D02D
:100CE000B1EB0A0564EB030404FA0CFCFD40FC4084
:100CF0004CEA0505C6E90054002747E7C2F1200386
:100D000020FA03F7954001FA02F021FA03F34FEAC3
:100D1000154E3843010CB3FBFEF71FFA85F80EFBA6
:100D2000173341EA034107FB08F38B4204FA02F44C
:100D300007D9691807F1FF3C2FD28B422DD9023F0A
:100D40002944CB1A81B2B3FBFEF00EFB103341EA0B
:100D5000034100FB08F38B4207D9691800F1FF3CFF
:100D600017D28B4215D902382944C91A40EA0747DD
:100D70003BE73746304609E70746E7E61846FBE615
:100D80004145ABD2B8EB020A69EB0E0201381346BB
:100D9000A4E76046E9E7184695E76746D1E781464C
:100DA0007CE702382C4447E7ACF1020C2B442FE7D8
:100DB000384608E73746E9E6704700BF10B58AB005
:100DC000214BDA6C42F00402DA64DA6C02F00402BD
:100DD0000192019ADA6C42F08002DA64DA6C02F075
:100DE00080020292029ADA6C42F00102DA64DA6C52
:100DF00002F001020392039ADA6C42F00202DA6412
:100E0000DB6C03F002030493049B002220214FF0CB
:100E1000904002F07FFA4FF4005305930B4B06937A
:100E20000024079405A90A4802F08AF920230593B3
:100E3000012306930794089405A94FF0904002F00F
:100E40007FF90AB010BD00BF001002400000211061
:100E50000008004830B585B00F238DF80F3003230C
:100E60008DF80E30234D6424009401230DF10F0200
:100E70003221284600F010FC009401230DF10E02EF
:100E80003221284600F008FC204601F093F9102397
:100E90008DF80D3008238DF80C30009401230DF1EE
:100EA0000D023221284600F0F7FB0094012303AA2B
:100EB0003221284600F0F0FB204601F07BF9112397
:100EC0008DF80B3000238DF80A30009401230DF1CA
:100ED0000B023221284600F0DFFB009401230DF1C4
:100EE0000A023221284600F0D7FB204601F062F9C1
:100EF00005B030BD9C00002070B52DED028B8AB08E
:100F0000002415E0A31C0AAA42F81C3D484D6426A3
:100F1000009601233221284600F0BEFB00960123F3
:100F200004AA02EB84023221284600F073FC01344B
:100F3000052CE7DD049B03F00F03059A03EB022366
:100F400007EE903AF8EEE77A3A4BC3ED007A9FED60
:100F50003A7AF4EEC77AF1EE10FA05DD9FED377AB2
:100F600077EEC77AC3ED007A069B03F00F03079A6A
:100F700003EB022307EE903AF8EEE77A304BC3ED2D
:100F8000007A9FED2D7AF4EEC77AF1EE10FA05DDC6
:100F90009FED2A7A77EEC77AC3ED007A089B03F0BB
:100FA0000F03099A03EB022307EE903AB8EEE78AA3
:100FB000234BD3ED007A9FED207AF4EEC77AF1EE61
:100FC00010FA05DD9FED1D7A77EEC77AC3ED007A42
:100FD000184C2068FFF7B8FA13A3D3E90023FFF7F2
:100FE0000BFBFFF71BFD2060154C2068FFF7ACFAE8
:100FF0000DA3D3E90023FFF7FFFAFFF70FFD2060F1
:1010000018EE100AFFF7A0FA07A3D3E90023FFF7B1
:10101000F3FAFFF703FD0B4B18600AB0BDEC028B2F
:1010200070BD00BFAFF300806EA301BC0512843F0A
:101030009C0000208400002000E0FF440000804568
:10104000880000208C000020FEE7000008B50C4856
:101050000C4B03604FF4E133436000238360C360B3
:1010600003610C2242618361C3610362436201F048
:1010700030F800B908BD4FF498710348FFF7E4FF5A
:10108000E800002000440040D03D000808B51548A5
:10109000154B0360154B4360002383600122C2603F
:1010A000036143618361C361036200F097FA50B941
:1010B00000210C4800F06CFC50B90021094800F0F8
:1010C00095FC50B908BD40F20D110948FFF7BCFF6F
:1010D0004FF48A710648FFF7B7FF40F21B1104482E
:1010E000FFF7B2FF9C00002000540040EC9C9010E1
:1010F000D03D000800B5B9B0022327934FF48072A9
:101100002A9210222B9231933293012233920A2297
:101110003492072235923693379327A801F00EF9BF
:1011200070BB0F232293032323930023249325933F
:101130002693042122A801F0A9FB28BB4223009397
:1011400000230F931493684601F0D2FD00BB4FF4C7
:10115000007002F0F1F8F8B901F042FC104BA3FB6B
:101160000030800902F076F9042002F089F90022AB
:1011700011464FF0FF3002F039F939B05DF804FB49
:10118000D2210848FFF760FFE0210648FFF75CFF27
:10119000E8210448FFF758FFEF210248FFF754FF0A
:1011A000D34D6210D03D000800B59BB000F0DEFFCB
:1011B000FFF7A0FFFFF702FEFFF748FFFFF766FF0C
:1011C000FFF748FE20214FF0904002F0A8F84FF4BE
:1011D0007A7000F0EFFFFFF78FFE0C4B1868FFF7F7
:1011E000B3F902460B460A4901A802F0D1F901A859
:1011F000FEF7EEFF4FF47A7382B201A9054800F0C2
:10120000C9FE4FF47A7000F0D5FFDBE784000020C0
:10121000DC3D0008E80000207047FEE7FEE7FEE73F
:10122000FEE770477047704708B500F0B5FF02F061
:1012300038F908BD00B583B0214B1A6E42F00102A7
:101240001A661A6E02F001020092009A9A6D42F03C
:1012500080529A659B6D03F080530193019B03209C
:1012600002F0B2F8002211466FF00B0002F0BEF857
:10127000002211466FF00A0002F0B8F80022114671
:101280006FF0090002F0B2F8002211466FF004007E
:1012900002F0ACF8002211466FF0030002F0A6F84D
:1012A000002211466FF0010002F0A0F80022114662
:1012B0004FF0FF3002F09AF803B05DF804FB00BF76
:1012C000001002400268114B9A4200D0704700B5EE
:1012D00087B0C023019312230293012303930323B6
:1012E0000493042305930DEB0301094801F028FF43
:1012F000084B9A6D42F400129A659B6D03F400133B
:101300000093009B07B05DF804FB00BF0054004051
:1013100000040048001002400268114B9A4200D0BD
:10132000704700B587B003F5E6339A6D42F400329A
:101330009A659B6D03F400330093009B0C2301938B
:1013400002230293002303930323049307230593AB
:1013500001A94FF0904001F0F3FE07B05DF804FBE7
:101360000044004003689A6912F0020F01D0002285
:101370009A6203689A6912F0010F03D19A6942F0E8
:1013800001029A61704770B4039E05686868740D25
:1013900004F4806444F07F7444F4583444F47F745B
:1013A00044F0030420EA0400C1F3090141EA0241C8
:1013B000194331430143696070BC704770B50446FE
:1013C0000D46164603689B6913F0100F1CD0236866
:1013D0009A6912F0200F19D1B5F1FF3FF7D000F054
:1013E000E3FE801BA84201D8002DF0D1636C43F0CE
:1013F00020036364202384F84130002384F84230C2
:1014000084F84030012020E000201EE01022DA6144
:1014100023682025DD612046FFF7A4FF226853687A
:1014200023F0FF7323F48B3323F4FF7323F00103C2
:101430005360636C43F00403636484F841500023F9
:1014400084F8423084F84030012070BD70B5044605
:101450000D46164623689B6913F0020F1DD13246D4
:1014600029462046FFF7AAFFC8B9B5F1FF3FF1D0E2
:1014700000F09AFE801BA84201D8002DEAD1636CCF
:1014800043F020036364202384F84130002384F870
:10149000423084F84030012000E0002070BD01207F
:1014A000FCE7F8B505460F4616461C462B689B69B7
:1014B00037EA03030CBF01230023B34218D1B4F170
:1014C000FF3FF3D000F070FE069BC01AA04201D887
:1014D000002CEBD16B6C43F020036B64202385F868
:1014E0004130002385F8423085F84030012000E08B
:1014F0000020F8BD70B505460C4616462B689B6962
:1015000013F0200F1AD1324621462846FFF756FF26
:10151000B0B900F049FE801BA04201D8002CEDD1EB
:101520006B6C43F020036B64202385F8413000236B
:1015300085F8423085F84030012070BD0020FCE77E
:101540000120FAE770B504460D46164623689B69EC
:1015500013F0040F3ED1324629462046FFF72EFFF6
:101560000146002838D123689A6912F0200F13D160
:1015700000F01AFE801BA84201D8002DE6D1636C52
:1015800043F020036364202384F84130002384F86F
:1015900040300121084670BD9A6912F0040F02D054
:1015A000228D002AF6D12022DA6121684B6823F0CF
:1015B000FF7323F48B3323F4FF7323F001034B6099
:1015C0000023636484F8412084F8423084F840307A
:1015D0000121DFE70021DDE70121DBE7002859D009
:1015E00010B5044690F84130002B43D0242384F8F2
:1015F00041302268136823F0010313606368226896
:1016000023F0706313612268936823F400439360AE
:10161000E368012B33D0A368226843F4044393604A
:10162000E368022B31D02268536843F0007343F41F
:10163000004353602268D36823F40043D3602369D6
:1016400062691343A169226843EA0123D360E36915
:10165000216A22680B4313602268136843F0010378
:10166000136000206064202384F84130206384F8F4
:10167000420010BD80F84030FFF724FEB6E7A368B3
:10168000226843F400439360CAE723684FF4006282
:101690005A60C8E7012070472DE9F04383B090F805
:1016A0004150EDB2202D40F0A48090F84040012C34
:1016B00000F0A480984617460E4604464FF00109F4
:1016C00080F8409000F070FD0546009019234A46CE
:1016D0004FF400412046FFF7E4FE002840F09080E0
:1016E000212384F84130102384F8423000236364BE
:1016F0006762A4F82A806363638D9BB2FF2B0AD9CB
:10170000FF222285424B00934FF0807331462046E2
:10171000FFF739FE18E0628D92B222853C4B0093B0
:101720004FF00073D2B231462046FFF72CFE0BE09B
:10173000628D92B22285002300934FF00073D2B2E3
:1017400031462046FFF71FFE638D9BB2002B33D03E
:101750002A460A992046FFF779FE002852D1626A8C
:10176000236812789A62636A01336362638D013B76
:101770009BB26385238D013B9BB22385628D92B220
:10178000002AE1D0002BDFD100950A9B00228021A6
:101790002046FFF786FE002836D1638D9BB2FF2BD3
:1017A000C6D9FF222285002300934FF08073314673
:1017B0002046FFF7E8FDC7E72A460A992046FFF7CB
:1017C00099FE034610BB22682021D161206842683F
:1017D00022F0FF7222F48B3222F4FF7222F0010217
:1017E000426084F84110002284F8422084F84020AE
:1017F00000E00223184603B0BDE8F0830223F9E7B6
:101800000123F7E70123F5E70123F3E70123F1E7DC
:10181000002000802DE9F04383B090F84150EDB2F4
:10182000202D40F0A48090F84040012C00F0A480CE
:10183000984617460E4604464FF0010980F840903E
:1018400000F0B2FC0546009019234A464FF40041CF
:101850002046FFF726FE002840F09080222384F8DF
:101860004130102384F84230002363646762A4F897
:101870002A806363638D9BB2FF2B0AD9FF222285E6
:10188000424B00934FF0807331462046FFF77BFDBB
:1018900018E0628D92B222853C4B00934FF00073AA
:1018A000D2B231462046FFF76EFD0BE0628D92B258
:1018B0002285002300934FF00073D2B231462046B8
:1018C000FFF761FD638D9BB2002B33D02A460A9946
:1018D0002046FFF737FE002852D123685A6A636A10
:1018E0001A70636A01336362238D013B9BB22385C7
:1018F000628D013A92B26285628D92B2002AE1D085
:10190000002BDFD100950A9B002280212046FFF7A3
:10191000C8FD002836D1638D9BB2FF2BC6D9FF22AC
:101920002285002300934FF0807331462046FFF755
:101930002AFDC7E72A460A992046FFF7DBFD034642
:1019400010BB22682021D1612068426822F0FF721A
:1019500022F48B3222F4FF7222F00102426084F8FA
:101960004110002284F8422084F8402000E0022345
:10197000184603B0BDE8F0830223F9E70123F7E737
:101980000123F5E70123F3E70123F1E700240080B9
:1019900090F84130DBB2202B24D190F84030012B5D
:1019A00022D0012380F84030242380F8413002689F
:1019B000136823F0010313600268136823F4805353
:1019C000136002681368194311600268136843F0DA
:1019D00001031360202380F84130002380F8403059
:1019E00018467047022070470220704790F8413037
:1019F000DBB2202B22D190F84030012B20D00123E4
:101A000080F84030242380F841300268136823F0C6
:101A1000010313600268136823F4706343EA012131
:101A200011600268136843F001031360202380F8FB
:101A30004130002380F8403018467047022070473C
:101A4000022070472DE9F048044601688368026966
:101A5000134342691343C26913430868A24A024010
:101A600013430B602268536823F44053E1680B432F
:101A70005360A16922689D4B9A4201D0236A1943A1
:101A8000936823F430630B4393602368984A93422E
:101A900027D0984A934238D0974A93424ED0974ADB
:101AA000934261D0964A934274D0904A934200F098
:101AB0008A8010258D4A934200F0AA80E369B3F52D
:101AC000004F00F03581082D00F2BF81DFE815F0EE
:101AD0007F0195019F01BD01AA01BD01BD01BD01AD
:101AE000B40102F55842D2F8882002F00302032A1A
:101AF00009D8DFE802F0020481060125DAE70425AF
:101B0000D8E70825D6E71025D4E702F5E632D2F863
:101B1000882002F00C020C2A0ED8DFE802F0070D34
:101B20000D0D090D0D0D6F0D0D0D0B000025C1E7FD
:101B30000425BFE70825BDE71025BBE702F5E43221
:101B4000D2F8882002F03002102A09D005D9202AC4
:101B500056D0302A06D10825ACE71AB90025A9E7E6
:101B60000425A7E71025A5E702F5E232D2F8882080
:101B700002F0C002402A09D005D9802A42D0C02AEA
:101B800006D1082596E71AB9002593E7042591E7C1
:101B900010258FE702F5E032D2F8882002F4407277
:101BA000B2F5807F0BD007D9B2F5007F2CD0B2F50B
:101BB000407F06D108257DE71AB900257AE704257C
:101BC00078E7102576E702F5C832D2F8882002F4CB
:101BD0004062B2F5806F0BD007D9B2F5006F15D017
:101BE000B2F5406F06D1082564E71AB9002561E710
:101BF00004255FE710255DE702255BE7022559E72D
:101C0000022557E7022555E7022553E7022551E74C
:101C1000082D00F21D81DFE815F00C001B011400F7
:101C20001B0111001B011B011B0109004FF40040A7
:101C300008E000F0DBFE28B90020D9E000F012FB3C
:101C4000F9E73048626802EB4203834200F2028106
:101C5000B0EB023F00F20081082D66D8DFE805F006
:101C60000565206530656565580000F0BFFE0025FC
:101C7000070E0602626850082B4616EB000B47F170
:101C8000000C58466146FEF719FF03462846A3F5A7
:101C900040711D4A914200F2E1802268D360A7E0C2
:101CA000560800252B46DFF864B04FF0000C1BEB04
:101CB00006004CF10001FEF701FF03462846E6E767
:101CC00000F0D0FA0025070E0602626850082B4685
:101CD00016EB000B47F1000C58466146FEF7EEFE8E
:101CE00003462846D3E700BFF369FFEF00800040BA
:101CF000003801400044004000480040004C0040D3
:101D0000005000400024F400FFFC0F00000024F409
:101D10005008002700252B4610F5000047F1000170
:101D2000FEF7CCFE03462846B1E701200023AEE7CC
:101D3000082D49D8DFE805F0051E294834484848F1
:101D40003F0000F053FE6268530803EB4003B3FB0F
:101D5000F2F39BB20020A3F110014FF6EF72914213
:101D60007ED89AB222F00F02C3F3420313432268D3
:101D7000D3603DE000F04CFE6268530803EB400383
:101D8000B3FBF2F39BB20020E5E76268530803F16E
:101D9000F47303F59043B3FBF2F39BB20020DAE750
:101DA00000F060FA6268530803EB4003B3FBF2F300
:101DB0009BB20020CFE76268530803F58033B3FB82
:101DC000F2F39BB20020C6E701200023C3E700F036
:101DD0000DFE636800EB5302B2FBF3F292B20020F7
:101DE000A2F110014FF6EF7399423BD82368DA60F5
:101DF000002222666266BDE8F08800F009FE636892
:101E000000EB5302B2FBF3F292B20020E8E7636802
:101E10005A0802F5740202F51052B2FBF3F292B2C4
:101E20000020DDE700F01EFA636800EB5302B2FB0E
:101E3000F3F292B20020D3E763685A0802F5004239
:101E4000B2FBF3F292B20020CAE701200022C7E7FA
:101E50000120CDE70120CBE70120C9E70120C7E73A
:101E60000120C5E70120C3E7436A13F0010F06D044
:101E70000268536823F40033816A0B435360436A5A
:101E800013F0020F06D00268536823F48033C16A4E
:101E90000B435360436A13F0040F06D00268536883
:101EA00023F48023016B0B435360436A13F0080F44
:101EB00006D00268536823F40043416B0B43536020
:101EC000436A13F0100F06D00268936823F480531E
:101ED000816B0B439360436A13F0200F06D00268B6
:101EE000936823F40053C16B0B439360436A13F070
:101EF000400F0AD00268536823F48013016C0B432F
:101F00005360036CB3F5801F0BD0436A13F0800F4E
:101F100006D00268536823F40023816C0B4353609E
:101F200070470268536823F4C003416C0B4353604D
:101F3000EBE72DE9F04105460F4616469846069C0C
:101F40002B68DB6937EA03030CBF01230023B3428C
:101F50001DD1B4F1FF3FF3D02CB100F025F9A0EB77
:101F60000800A042ECD92A68136823F4D0731360E8
:101F70002A68936823F001039360202385F8713069
:101F800085F87230002385F87030032000E00020CF
:101F9000BDE8F0812DE9F04182B01E4690F8713025
:101FA000DBB2202B4ED104460D46904600294ED080
:101FB000002A4ED090F87030012B4CD0012380F8CD
:101FC000703000234367212380F8713000F0ECF873
:101FD0000746A4F85080A4F8528009E023682A78C4
:101FE0001A850135B4F85230013B9BB2A4F8523047
:101FF000B4F852309BB2ABB100963B460022802130
:102000002046FFF796FF40BBA368B3F5805FE5D19C
:102010002369002BE2D1226835F8023BC3F30803A1
:102020001385DFE700963B46002240212046FFF75C
:1020300080FF034698B9202284F87120002284F89A
:10204000702000E00223184602B0BDE8F0810123B1
:10205000F9E70123F7E70223F5E70323F3E7032377
:10206000F1E730B583B004460023436700F09CF8E5
:10207000054623681B6813F0080F0ED123681B6800
:1020800013F0040F17D1202384F8713084F87230D4
:10209000002084F8700003B030BD6FF07E430093E1
:1020A000034600224FF400112046FFF742FF0028AC
:1020B000E4D00320EFE76FF07E4300932B4600222D
:1020C0004FF480012046FFF734FF0028DBD00320C7
:1020D000E1E778B310B5044690F871300BB32423D0
:1020E00084F871302268136823F0010313602046DE
:1020F000FFF7A8FC012813D0636ABBB922685368B4
:1021000023F4904353602268936823F02A0393607A
:102110002268136843F0010313602046FFF7A1FF14
:1021200010BD80F87030FFF7F7F8D8E72046FFF7CA
:102130009BFEE3E70120704710B50446094B186881
:10214000094BA3FB0030800901F084F908B101209C
:1021500010BD002221464FF0FF3001F047F900206A
:10216000F6E700BF00000020D34D621010B5094A09
:10217000136843F480731360032001F025F90020F5
:10218000FFF7DAFF10B10124204610BD0446FFF727
:1021900051F8F9E700200240024A13680133136046
:1021A000704700BF60010020014B1868704700BFF6
:1021B0006001002038B50446FFF7F6FF0546B4F18C
:1021C000FF3F00D00134FFF7EFFF401BA042FAD3DE
:1021D00038BD000030B583B00546204B9B6D13F031
:1021E000805F0BD001F0A0F8B0F5007F17D0802DF4
:1021F0001FD82DD0702D2DD000211BE0174CA36DC2
:1022000043F08053A365A36D03F080530193019BBA
:1022100001F08AF8A36D23F08053A365E4E7802DD5
:1022200003D9A02D03D9022104E0002102E00121FD
:1022300000E003210A4A136823F007030B431360ED
:10224000136803F007038B4206D0012003B030BDB2
:102250000221EFE70121EDE70020F7E7001002403F
:1022600000200240314A9368D26802F0030213F062
:102270000C030AD00C2B06D0042B1FD0082B20D027
:102280000020014610E0012AF6D1284A126812F017
:10229000080F0CD1254AD2F89420C2F30322244916
:1022A00051F8221043B100200C2B0DD070471F4A6B
:1022B0001268C2F30312F2E70846F5E71D48002151
:1022C000F2E71D480021EFE7184BDA6802F003023D
:1022D000DB68C3F302130133022A0AD0032A1AD09F
:1022E000B1FBF3F3114AD068C0F3062000FB03F002
:1022F00008E01048B0FBF3F30C4AD068C0F30620A6
:1023000000FB03F0094BDB68C3F3416301335B005F
:10231000B0FBF3F0CAE70848B0FBF3F3034AD06818
:10232000C0F3062000FB03F0ECE700BF0010024002
:10233000F83D00080024F40000127A00002800F0A4
:102340009082F0B583B00446AC4B9D6805F00C0557
:10235000DE6806F00306036813F0100F5DD0E5B1E8
:102360000C2D18D0A369002B00F0B780A34A136886
:1023700043F001031360FFF717FF07469F4B1B68ED
:1023800013F0020F40F09680FFF70EFFC01B0228EB
:10239000F4D9032371E2012EE4D1984B1B6813F0AA
:1023A000020F03D0A369002B00F05E82206A934BDA
:1023B0001B6813F0080F5DD0904B1B6803F0F0030F
:1023C00098425ED9FFF706FF002840F04F828B4B02
:1023D0001A6842F008021A601A6822F0F002216AB4
:1023E0000A431A605A6822F47F42E16942EA0122F4
:1023F0005A60FFF737FF814B9B68C3F30313804A92
:10240000D35C03F01F03D8407E4B18600020FFF719
:1024100093FE0346002840F03082236813F0010F3A
:102420007AD0082D6FD00C2D6BD06368B3F5803F48
:1024300000F09180B3F5A02F00F093806F4B1A68E5
:1024400022F480321A601A6822F480221A606368CB
:10245000002B00F09380FFF7A7FE0746674B1B6831
:1024600013F4003F58D1FFF79FFEC01B6428F5D935
:10247000032302E2614BD3F894301B0903F0F0030D
:102480009EE75E4B1A6842F008021A601A6822F052
:10249000F002216A0A431A605A6822F47F42E16915
:1024A00042EA01225A60206AFFF794FE0028A0D079
:1024B0000123E2E1514B1A6842F008021A601A68DF
:1024C00022F0F002216A0A431A605A6822F47F421D
:1024D000E16942EA01225A609FE7484A136823F003
:1024E00001031360FFF760FE0746444B1B6813F0BF
:1024F000020F92D0FFF758FEC01B0228F5D9032324
:10250000BBE1032E91D13D4B1B6813F4003F03D078
:102510006368002B00F0AC81236813F0020F4FD0EA
:10252000042D3CD00C2D38D0E368002B75D0334AF5
:10253000136843F480731360FFF736FE06462F4B93
:102540001B6813F4806F5FD1FFF72EFE801B0228FB
:10255000F5D9032391E1294A136843F480331360CA
:1025600075E703F18043A3F53C331A6842F48022F7
:102570001A601A6842F480321A6068E7FFF714FEA6
:1025800007461E4B1B6813F4003FC5D0FFF70CFE37
:10259000C01B6428F5D903236FE1022EC4D1174B69
:1025A0001B6813F4806F03D0E368002B00F0628196
:1025B000124A536823F0F853216943EA01635360D8
:1025C000236813F0080F53D06369002B39D00B4AEE
:1025D000D2F8943043F00103C2F89430FFF7E4FDE1
:1025E0000646064BD3F8943013F0020F40D1FFF7A4
:1025F000DBFD801B0228F4D903233EE100100240DA
:10260000E03D0008000000209E4A536823F0F85384
:10261000216943EA01635360D2E79A4A136823F4BD
:1026200080731360FFF7C0FD0646964B1B6813F4DA
:10263000806FC5D0FFF7B8FD801B0228F5D90323B2
:102640001BE1904AD2F8943023F00103C2F8943091
:10265000FFF7AAFD06468B4BD3F8943013F0020F18
:1026600006D0FFF7A1FD801B0228F4D9032304E163
:10267000236813F0040F7AD0824B9B6D13F0805FB8
:102680000BD1804B9A6D42F080529A659B6D03F09E
:1026900080530193019B012600E000267A4B1B68C2
:1026A00013F4807F26D0A368012B37D0052B3DD0B3
:1026B000744BD3F8902022F00102C3F89020D3F895
:1026C000902022F00402C3F89020A368002B3BD096
:1026D000FFF76AFD07466B4BD3F8903013F0020FFB
:1026E00044D1FFF761FDC01B41F288339842F2D913
:1026F0000323C2E0644A136843F480731360FFF756
:1027000053FD0746604B1B6813F4807FCBD1FFF766
:102710004BFDC01B0228F5D90323AEE0594AD2F87D
:10272000903043F00103C2F89030CEE7554BD3F818
:10273000902042F00402C3F89020D3F8902042F099
:102740000102C3F89020C0E7FFF72EFD07464D4B6E
:10275000D3F8903013F0020F08D0FFF725FDC01B0F
:1027600041F288339842F2D9032386E066BBA36A1C
:10277000002B00F081800C2D00F08280022B29D0EC
:10278000404B1A6822F080721A601B6813F0205FB9
:1027900004D13C4AD36823F00303D360394AD36899
:1027A00023F0887323F48033D360FFF7FDFC0446E5
:1027B000344B1B6813F0007F51D0FFF7F5FC001B72
:1027C0000228F5D9032358E02E4A936D23F0805355
:1027D0009365CCE72B4A136823F080731360FFF7EF
:1027E000E3FC0546274B1B6813F0007F06D0FFF77C
:1027F000DBFC401B0228F5D903233EE0236B5A1E65
:10280000636B1B0243EA0213A26B120943EA4243C1
:10281000E26A1343E26B5208013A43EA4253226CE4
:102820005208013A43EA4263164AD360136843F000
:1028300080731360D36843F08073D360FFF7B4FCF8
:102840000446104B1B6813F0007F06D1FFF7ACFC69
:10285000001B0228F5D903230FE000230DE000231D
:102860000BE0012318467047012306E0012304E032
:10287000012302E0012300E00023184603B0F0BD6D
:102880000123FAE70010024000700040002800F029
:102890009A8070B504464E4B1B6803F007038B42C9
:1028A0000CD24B4A136823F007030B4313601368E1
:1028B00003F007038B4201D0012070BD0D46236851
:1028C00013F0010F39D06368032B09D0022B26D0F7
:1028D00063BB404A126812F0020F06D10120ECE7F8
:1028E0003C4A126812F0007F6FD03A498A6822F0A1
:1028F000030213438B60FFF757FC0646354B9B687A
:1029000003F00C036268B3EB820F16D0FFF74CFCA8
:10291000801B41F288339842F0D90320CDE72D4A3D
:10292000126812F4003FE0D10120C6E7294A12687C
:1029300012F4806FD9D10120BFE7236813F0020F92
:1029400006D0244A936823F0F003A1680B439360F8
:102950001F4B1B6803F00703AB420CD91C4A1368DA
:1029600023F007032B431360136803F00703AB4204
:1029700001D00120A1E7236813F0040F06D0154A07
:10298000936823F4E063E1680B439360236813F0DA
:10299000080F07D00F4A936823F46053216943EA74
:1029A000C1039360FFF75EFC0A4B9B68C3F30313FC
:1029B000094AD35C03F01F03D840084B186000207D
:1029C000FFF7BAFB79E701207047012075E700BFE8
:1029D0000020024000100240E03D000800000020FE
:1029E000014B1868704700BF0000002008B5FFF7D2
:1029F000F7FF054B9B68C3F30223044AD35C03F043
:102A00001F03D84008BD00BF00100240F03D000881
:102A100008B5FFF7E5FF054B9B68C3F3C223044AE3
:102A2000D35C03F01F03D84008BD00BF0010024074
:102A3000F03D0008F8B55A4BDB6813F0030F18D0CF
:102A4000574BDB6803F003030268934202D0012571
:102A50002846F8BD002A00F0A080514BDB68C3F384
:102A6000021301334268934201D00125F0E70025AB
:102A70001AE00368022B59D0032B5ED0012B01D042
:102A800001250FE0464A126812F0020F61D0444D52
:102A9000EA6822F073024468013C43EA04131343DA
:102AA000EB600025002DD3D10F4604463C4A136845
:102AB00023F080631360FFF777FB0646384B1B68F3
:102AC00013F0006F05D0FFF76FFB801B0228F5D9CC
:102AD0000325002DBCD1002F3DD131490B6923F4D2
:102AE0001F3323F44073A068E2681209520442EADB
:102AF000002213430B612A4A136843F0806313607A
:102B0000FFF752FB0646264B1B6813F0006F05D1FA
:102B1000FFF74AFB801B0228F5D90325002D97D12A
:102B20001F4A1369A1690B43136191E71C4A12689C
:102B300012F4806FABD10125B4E7194A126812F480
:102B4000003FA4D1164A126812F4802F9FD10125AC
:102B5000A8E70125A6E7012F0FD01148026922F04E
:102B6000C06222F4FE42A16863695B08013B5B0618
:102B700043EA012313430361BDE70948026922F4D4
:102B8000C00222F4FE42A16823695B08013B5B0599
:102B900043EA012313430361ADE7012558E700BF72
:102BA00000100240F8B5514BDB6813F0030F18D04A
:102BB0004E4BDB6803F003030268934202D0012509
:102BC0002846F8BD002A00F08E80484BDB68C3F32E
:102BD000021301334268934201D00125F0E700253A
:102BE0001AE00368022B59D0032B5ED0012B01D0D1
:102BF00001250FE03D4A126812F0020F61D03B4DF3
:102C0000EA6822F073024468013C43EA0413134368
:102C1000EB600025002DD3D10F460446334A1368DC
:102C200023F080531360FFF7BFFA06462F4B1B6853
:102C300013F0005F05D0FFF7B7FA801B0228F5D923
:102C40000325002DBCD1002F3DD128494B6923F429
:102C50001F3323F44073A068E2681209520442EA69
:102C6000002213434B61214A136843F080531360E1
:102C7000FFF79AFA06461D4B1B6813F0005F05D15B
:102C8000FFF792FA801B0228F5D90325002D97D172
:102C9000164A536961690B43536191E7134A1268FD
:102CA00012F4806FABD10125B4E7104A126812F418
:102CB000003FA4D10D4A126812F4802F9FD1012544
:102CC000A8E70125A6E70948426922F0C06222F47C
:102CD000FE42A16823695B08013B5B0643EA0123CE
:102CE00013434361BFE701256AE700BF00100240BC
:102CF0002DE9F04182B00446036813F4006F2FD031
:102D0000436EB3F5800F25D008D9B3F5000F10D06E
:102D1000B3F5400F40F09980002610E0002B40F002
:102D2000948000210430FFF785FE06463EB1374609
:102D300018E05E4AD36843F48033D36000265B4AD0
:102D4000D2F8883023F44003616E0B43C2F8883018
:102D5000002707E000212030FFF724FF0646E5E7C3
:102D600000273E46236813F4805F15D0A36EB3F1AD
:102D7000807F7AD06CD9B3F1007F70D0B3F1407FFF
:102D80007AD1002E7BD1494AD2F8883023F04073A3
:102D9000A16E0B43C2F88830236813F4003F00F0A3
:102DA0008E80424B9B6D13F0805F6AD13F4B9A6DD2
:102DB00042F080529A659B6D03F080530193019B12
:102DC0004FF001083A4A136843F480731360FFF729
:102DD000EBF90546364B1B6813F4807F05D1FFF7EE
:102DE000E3F9401B0228F5D90326002E62D12F4BB0
:102DF000D3F8903013F4407316D0D4F884209A425C
:102E000012D02A4AD2F8903023F44073D2F89010AE
:102E100041F48031C2F89010D2F8901021F4803142
:102E2000C2F89010C2F8903013F0010F2CD1002E90
:102E300040F043811D4AD2F8903023F44073D4F817
:102E400084100B43C2F8903035E001273E4689E7F5
:102E500093B90021201DFFF7EDFD064691E7134AC7
:102E6000D36843F48033D3608BE7002104F1200062
:102E7000FFF798FE064684E701273E468CE7374673
:102E80008AE74FF000089DE7FFF78EF90546074BEC
:102E9000D3F8903013F0020FC9D1FFF785F9401B2A
:102EA00041F288339842F2D90326C0E7001002406D
:102EB000007000403746B8F1000F40F000812368F1
:102EC00013F0010F08D09D4AD2F8883023F0030395
:102ED000A16B0B43C2F88830236813F0020F08D0AF
:102EE000964AD2F8883023F00C03E16B0B43C2F80A
:102EF0008830236813F0040F08D0904AD2F8883045
:102F000023F03003216C0B43C2F88830236813F0A0
:102F1000080F08D0894AD2F8883023F0C003616CCA
:102F20000B43C2F88830236813F0100F08D0834A8F
:102F3000D2F8883023F44073A16C0B43C2F8883078
:102F4000236813F0200F08D07C4AD2F8883023F48D
:102F50004063E16C0B43C2F88830236813F4007FB0
:102F600008D0764AD2F8883023F44023E16D0B4331
:102F7000C2F88830236813F4806F08D06F4AD2F803
:102F8000883023F44013216E0B43C2F88830236845
:102F900013F0400F08D0694AD2F8883023F4405328
:102FA000216D0B43C2F88830236813F0800F08D0DE
:102FB000624AD2F8883023F44043616D0B43C2F873
:102FC0008830236813F4807F08D05C4AD2F88830B8
:102FD00023F44033A16D0B43C2F88830236813F407
:102FE000005F0FD0554AD2F8883023F04063E16E7D
:102FF0000B43C2F88830E36EB3F1006F65D0B3F1D4
:10300000806F67D0236813F4002F0FD04B4AD2F89B
:10301000883023F04063216F0B43C2F88830236F60
:10302000B3F1006F5ED0B3F1806F60D0236813F40A
:10303000802F0FD0414AD2F8883023F04063616F6F
:103040000B43C2F88830636FB3F1006F57D0B3F110
:10305000806F59D0236813F4804F0FD0374AD2F8CD
:10306000883023F04053A16F0B43C2F88830A36F20
:10307000B3F1805F50D0B3F1005F55D0236813F4F3
:10308000004F08D02D4AD2F8883023F08043E16FFA
:103090000B43C2F88830236813F4803F09D0274AD5
:1030A000D2F8883023F00043D4F880100B43C2F8E4
:1030B0008830384602B0BDE8F0813746FBE61F4A4B
:1030C000936D23F080539365F9E6D36843F480133E
:1030D000D36097E70121201DFFF7ACFC002891D0B9
:1030E00007468FE7D36843F48013D3609EE701213E
:1030F000201DFFF79FFC002898D0074696E7D3686D
:1031000043F48013D360A5E70121201DFFF792FC53
:1031100000289FD007469DE70221201DFFF78AFC6B
:103120000028ABD00746A9E7022104F12000FFF7F1
:1031300039FD0028A2D00746A0E700BF00100240DA
:10314000F0B482B0002341E0D0F82CC02CEA040C8B
:10315000C6F3C0049C4044EA0C04C46286E0062422
:1031600000E00024B4403C430235664E46F825405A
:10317000654C2568D44304EA05064F6817F4803F80
:1031800001D042EA0506604D2E606D6804EA05062E
:103190004F6817F4003F01D042EA05065A4D6E60B1
:1031A000AD6804EA05064F6817F4801F01D042EAB3
:1031B0000506554DAE60ED682C404E6816F4001FB4
:1031C00001D042EA0504504AD46001330A6832FA59
:1031D00003F400F0938001249C402240F5D04D6818
:1031E000022D01D0122D10D1DE08083650F826C06D
:1031F00003F00705AF000F25BD402CEA050C0D6953
:10320000BD4045EA0C0540F8265006685F000325DE
:10321000BD40ED4305EA060C4E6806F00306BE40CD
:1032200046EA0C0606604E6806F1FF3CBCF1010F51
:1032300003D9112E01D0122E11D1866805EA060C91
:10324000CE68BE4046EA0C068660466826EA040C54
:103250004E68C6F300169E4046EA0C0646604E686D
:1032600006F0030CBCF1030F3FF46EAFC4682540B9
:103270008C68BC402C43C4604C6814F0805FA4D0C0
:10328000224C256E45F001052566246E04F00104EC
:103290000194019C9D08AE1C1A4C54F8267003F052
:1032A0000304A6000F24B44027EA0407B0F1904FAE
:1032B0003FF457AF164CA04216D004F58064A042EC
:1032C00014D004F58064A04212D004F58064A042BA
:1032D00010D004F58064A0420ED004F58064A042B2
:1032E0003FF43DAF07243DE701243BE7022439E7E3
:1032F000032437E7042435E7052433E702B0F0BCA4
:10330000704700BF0000014000040140001002406F
:10331000000400480AB981627047816170474369BF
:103320005940416170470000024B186800F4C060CA
:10333000704700BF00700040B0F5007F0FD01F4BFA
:103340001B6803F4C063B3F5806F34D01B4A136865
:1033500023F4C06343F48063136000207047174B6D
:103360001B6803F4C063B3F5007F22D0134A1368CF
:1033700023F4C06343F400731360114B1A683223C3
:1033800003FB02F30F4AA2FB03239B0C013300E073
:10339000013B0A4A526912F4806F01D0002BF7D129
:1033A000064B5B6913F4806F01D100207047032046
:1033B0007047002070470020704700BF0070004039
:1033C0000000002083DE1B43074AD36823F4E06338
:1033D0001B041B0C000200F4E060184340F0BF60C7
:1033E00040F40030D060704700ED00E030B4174B7F
:1033F000DB68C3F30223C3F10704042C28BF0424B1
:103400001D1D062D18D9033B4FF0FF3505FA04F4B6
:1034100021EA0401994005FA03F322EA0303194360
:1034200000280BDB0901C9B200F1604000F56140E2
:1034300080F8001330BC70470023E5E700F00F0070
:103440000901C9B2024B1954F4E700BF00ED00E0D6
:1034500014ED00E00138B0F1807F0AD2064B5860CD
:10346000064AF02182F823100020986007221A6093
:1034700070470120704700BF10E000E000ED00E061
:10348000042805D0054A136823F00403136070472D
:10349000024A136843F004031360704710E000E031
:1034A000704708B5FFF7FCFF08BD00000F49D1F8D1
:1034B000883043F47003C1F888300D4B1A6842F02D
:1034C00001021A60002098601A6822F0A85222F4C3
:1034D00010221A604FF48052DA601A6822F48022B7
:1034E0001A6098614FF000638B60704700ED00E058
:1034F00000100240DFF834D0002103E00C4B5B5891
:10350000435004310B480C4B42189A42F6D30B4AF5
:1035100002E0002342F8043B094B9A42F9D3FFF73B
:10352000C5FF00F011F8FDF73FFEFEE70080012027
:10353000783E00080000002068000020680000209D
:1035400068010020FEE7000070B50D4E0D4CA41B75
:10355000A4100025A54209D10B4E0C4C00F02CFC08
:10356000A41BA4100025A54205D170BD56F8253036
:1035700098470135EEE756F8253098470135F2E7D0
:10358000683E0008683E0008683E00086C3E00087F
:103590000EB400B59CB01DAB029006906FF00041D8
:1035A000094807910491094953F8042B05910068D3
:1035B000019302A900F066F8029B00221A701CB069
:1035C0005DF804EB03B07047040000200802FFFF21
:1035D0002DE9F0478E689E4282460C4690469946F9
:1035E00037D88A8912F4906F31D0256809696F1A2B
:1035F0006569022305EB450595FBF3F509F1010328
:103600003B449D4238BF1D46530530D5294600F046
:103610002BFB064650B90C23CAF80030A38943F0AF
:103620004003A3814FF0FF30BDE8F0873A4621699F
:1036300000F0A8FAA38923F4906343F08003A381E8
:10364000266165613E44ED1B2660A5604E464E45F1
:1036500000D94E4632464146206800F09EFAA368E3
:103660009B1BA36023681E4426600020DCE72A46DB
:1036700000F054FB06460028E2D12169504600F0D4
:10368000A5FAC8E72DE9F04F1D468B891F069DB0AE
:1036900080460C4616460FD50B696BB9402100F0E9
:1036A000E3FA2060206128B90C23C8F800304FF0FD
:1036B000FF30C8E0402363610023099320238DF885
:1036C000293030238DF82A3003954FF0010B37460F
:1036D0003D4615F8013B0BB1252B3ED1B7EB060A51
:1036E0000BD05346324621464046FFF771FF01306A
:1036F00000F0A480099B534409933B78002B00F011
:103700009D8000234FF0FF32CDE9052304930793FA
:103710008DF853301A932F46052217F8011B504895
:10372000FCF75EFD049BD0B9D90644BF20228DF87A
:1037300053201A0744BF2B228DF853202A782A2AB7
:1037400015D0079A2F4600200A25394611F8013B6B
:10375000303B092B4DD9B8B10FE02F46B8E7404AAE
:10376000801A0BFA00F0184304903D46D3E7039A01
:10377000111D12680391002A01DB079204E05242F6
:1037800043F00203079204933B782E2B0CD17B78F5
:103790002A2B33D1039B1A1D1B680392002BB8BF41
:1037A0004FF0FF33023705932E4D39780322284618
:1037B000FCF716FD38B14023401B03FA00F0049BD0
:1037C000034301370493397827488DF828100622DF
:1037D0007E1CFCF705FD002838D0244B13BB039B4F
:1037E000073323F0070308330393099B4B440993E2
:1037F0006DE705FB023201200F46A6E700230137E3
:10380000059319460A25384610F8012B303A092A43
:1038100003D9002BC8D00591C6E705FB0121012380
:103820000746F0E703AB00932246114B04A940463C
:10383000AFF30080B0F1FF3F8146D6D1A3895B068C
:103840003FF535AF09981DB0BDE8F08F03AB00938D
:103850002246074B04A9404600F082F8EAE700BF81
:10386000283E00082E3E0008323E000800000000FE
:10387000D13500082DE9F04791461F468A680B694B
:10388000DDF820809342B8BF1346C9F8003091F8A4
:10389000432006460C4612B10133C9F800302368B4
:1038A000990642BFD9F800300233C9F800302568C4
:1038B00015F0060507D104F1190AE368D9F80020CC
:1038C0009B1AAB4228DC94F843302268003318BFBF
:1038D000012392062DD404F1430239463046C047F5
:1038E000013020D02368E568D9F8002003F00603F2
:1038F000042B08BFAD1AA36822690CBF25EAE57541
:1039000000259342C4BF9B1AED184FF000091A34EA
:103910004D451AD1002008E0012352463946304671
:10392000C047013003D14FF0FF30BDE8F0870135CB
:10393000C3E7E1185A1C302081F84300224494F870
:10394000451082F843100233C5E701232246394669
:103950003046C0470130E6D009F10109D8E7000040
:103960002DE9F04301F1430C0C46097E85B06E2928
:103970001746064698460C9A00F0B38022D8632971
:1039800036D00AD8002900F0B980582900F0838089
:1039900004F1420584F8421032E0642901D069291B
:1039A000F6D120681368050603F104012AD51B68C7
:1039B0001160002B03DA2D225B4284F843206F480C
:1039C0000A2239E0732900F09D8008D86F2920D0A1
:1039D0007029DDD1236843F02003236003E07529BB
:1039E00017D07829D4D1782384F84530644855E03D
:1039F0001368191D1B68116004F1420584F84230F8
:103A000001238CE01B68116010F0400F18BF1BB23F
:103A1000CFE713682568181D1060280601D51B68BC
:103A200002E06806FBD51B8854486F2914BF0A22A0
:103A30000822002184F843106568A560002DC0F2BB
:103A40009580216821F004012160002B3DD1002DDB
:103A500040F08E806546082A0BD12368DB0708D525
:103A6000236962689A42DEBF302305F8013C05F104
:103A7000FF35ACEB05032361CDF800803B4603AA7C
:103A800021463046FFF7F6FE01304DD14FF0FF30B2
:103A900005B0BDE8F083394884F845101368216803
:103AA0001D1D1B6815600A060BD5CA0744BF41F0EF
:103AB000200121601BB9226822F02002226010221E
:103AC000B7E74D0648BF9BB2EFE76546B3FBF2F19F
:103AD00002FB1133C35C05F8013D0B460029F5D10B
:103AE000B9E7136825686169181D106028061B680E
:103AF00001D5196002E06A06FBD519800023236115
:103B00006546B9E71368191D11601D6862680021D8
:103B10002846FCF765FB08B1401B606063682361C1
:103B2000002384F84330A7E723692A463946304604
:103B3000C0470130AAD023689B0713D4E068039BD9
:103B40009842B8BF1846A3E701234A463946304693
:103B5000C04701309AD00135E368039A9B1AAB4203
:103B6000F2DCEBE7002504F11909F5E7002BACD1F5
:103B7000037884F8423004F142056CE7393E0008CE
:103B80004A3E000810B5431E0A44914200D110BDC0
:103B900011F8014B03F8014FF7E7884210B501EB2C
:103BA000020307D8421E99420AD011F8014B02F8CD
:103BB000014FF8E78342F5D98118D21AD34200D1D8
:103BC00010BD13F8014D01F8014DF7E738B5054672
:103BD000002945D051F8043C0C1F002BB8BFE41855
:103BE00000F0D2F81F4A1368104633B963601460BE
:103BF0002846BDE8384000F0C8B8A3420CD9216877
:103C00006218934204BF1A685B68636004BF52186D
:103C100022600460ECE713465A680AB1A242FAD95E
:103C200019685818A0420BD12068014458188242E4
:103C30001960DDD1106852685A6001441960D7E7F5
:103C400002D90C232B60D3E7206821188A4204BFD5
:103C500011685268626004BF091821605C60C7E7A0
:103C600038BD00BF9000002070B5CD1C25F00305C5
:103C700008350C2D38BF0C25002D064601DBA94266
:103C800003D90C233360002070BD00F07DF8214A79
:103C90001468214691B9204C23681BB9304600F0C6
:103CA00063F820602946304600F05EF8431C24D1BA
:103CB0000C233360304600F068F8E4E70B685B1BC8
:103CC00018D40B2B0FD90B60CD50CC18304600F018
:103CD0005CF804F10B00231D20F00700C31AD3D0B9
:103CE0005A42E250D0E78C424B6816BF63601360C3
:103CF0000C46EBE70C464968CCE7C41C24F00304EF
:103D0000A04205D0211A304600F02EF80130CFD065
:103D10002560DBE79000002094000020F8B50746FE
:103D200014460E4621B91146BDE8F840FFF79CBF86
:103D300022B9FFF74BFF25462846F8BD00F026F8CC
:103D4000A0420FD221463846FFF78EFF05460028D5
:103D5000F2D031462246FFF715FF31463846FFF7CD
:103D600035FFE9E73546E7E738B5064C0023054659
:103D70000846236000F012F8431C02D1236803B107
:103D80002B6038BD640100207047704751F8043C37
:103D9000181F002BBCBF0B58C0187047044A0549B8
:103DA0001368002B08BF0B46184410601846704774
:103DB0009800002068010020F8B500BFF8BC08BCDE
:103DC0009E467047F8B500BFF8BC08BC9E467047D9
:103DD0005372632F6D61696E2E63000025660A00C1
:103DE00000000000000000000102030406070809AB
:103DF0000000000001020304A0860100400D030042
:103E0000801A060000350C0040420F0080841E001E
:103E100000093D0000127A000024F40000366E0113
:103E20000048E801006CDC02232D302B2000686C78
:103E30004C006566674546470030313233343536CD
:103E40003738394142434445460030313233343506
:103E5000363738396162636465660000000000002F
:083E60008CCCFF7F0100000083
:083E6800B50100080000000094
:083E70009101000800000000B0
:103E780000093D00080000200000000000000000CC
:103E8800000000000000000000000000000000002A
:103E9800000000000000000000000000000000001A
:103EA800000000000000000000000000000000000A
:103EB80000000000000000000000000000000000FA
:103EC80000000000000000000000000000000000EA
:083ED8000000000000000000E2
:04000005080034F5C6
:00000001FF
